:100000000C942A000C9483020C9483020C948302B7
:100010000C9483020C9483020C9483020C9483024C
:100020000C9483020C9483020C9483020C9483023C
:100030000C9483020C9467010C9483020C94830249
:100040000C9483020C9483020C9483020C9483021C
:100050000C94830211241FBECFE5D8E0DEBFCDBFD4
:10006000E4E5F0E040E017C0B591A5913591259108
:10007000059107FD0CC095918591EF01F92FE82FAF
:1000800005900D92A217B307D9F7FE0104C01D9287
:10009000A217B307E1F7E435F40731F70E944C02E9
:0800A0000C945200F894FFCF0C
:1000A80010C00E94640258F00E945D0240F029F4DA
:1000B8005F3F29F00C94720251110C946C020C945D
:1000C80080020E94CF0168F39923B1F3552391F37D
:1000D800951B550BBB27AA2762177307840738F0AF
:1000E8009F5F5F4F220F331F441FAA1FA9F335D00C
:1000F8000E2E3AF0E0E832D091505040E695001CC0
:10010800CAF72BD0FE2F29D0660F771F881FBB1F79
:10011800261737074807AB07B0E809F0BB0B802D57
:10012800BF01FF2793585F4F3AF09E3F510578F083
:100138000C9472020C946C025F3FE4F3983ED4F383
:10014800869577956795B795F7959F5FC9F7880F57
:10015800911D9695879597F90895E1E0660F771FA9
:10016800881FBB1F621773078407BA0720F0621B3A
:0E017800730B840BBA0BEE1F88F7E095089509
:1001860011C00E945D0238F00E94640220F039F42A
:100196009F3F19F426F40C9480020EF4E095E7FBD9
:1001A6000C947202E92F0E94CF0158F3BA17620726
:1001B60073078407950720F079F4A6F50C946B0273
:1001C6000EF4E0950B2EBA2FA02D0B01B90190016C
:1001D6000C01CA01A0011124FF27591B99F0593FB0
:1001E60050F4503E68F11A16F040A22F232F342FF8
:1001F6004427585FF3CF469537952795A795F04046
:100206005395C9F77EF41F16BA0B620B730B840B5A
:10021600BAF09150A1F0FF0FBB1F661F771F881F12
:10022600C2F70EC0BA0F621F731F841F48F487956A
:1002360077956795B795F7959E3F08F0B0CF93955C
:0E024600880F08F09927EE0F97958795089579
:10025400E89409C097FB3EF490958095709561955C
:100264007F4F8F4F9F4F9923A9F0F92F96E9BB2712
:100274009395F695879577956795B795F111F8CF8E
:10028400FAF4BB0F11F460FF1BC06F5F7F4F8F4FF9
:100294009F4F16C0882311F096E911C0772321F0EF
:1002A4009EE8872F762F05C0662371F096E8862F87
:1002B40070E060E02AF09A95660F771F881FDAF7DE
:0A02C400880F9695879597F9089525
:1002CE001F920F920FB60F9211242F933F934F93BD
:1002DE005F936F937F938F939F93AF93BF93EF93A0
:1002EE00FF930E9485028B3649F46FEF80E090E019
:1002FE000E94260281E40E9478020AC08F3641F4E1
:10030E0060E080E090E00E94260282E40E94780283
:10031E00FF91EF91BF91AF919F918F917F916F91CF
:10032E005F914F913F912F910F900FBE0F901F90A5
:02033E00189510
:100340000E94D70188F09F5798F0B92F9927B7518D
:10035000B0F0E1F0660F771F881F991F1AF0BA9569
:10036000C9F714C0B13091F00E946B02B1E008955A
:100370000C946B02672F782F8827B85F39F0B93F4C
:10038000CCF3869577956795B395D9F73EF490951C
:0E0390008095709561957F4F8F4F9F4F089518
:10039E0057FD9058440F551F59F05F3F71F0479528
:1003AE00880F97FB991F61F09F3F79F0879508950D
:1003BE00121613061406551FF2CF4695F1DF08C02C
:1003CE00161617061806991FF1CF86957105610549
:0403DE0008940895E2
:1003E200BC0180E090E00E942A019B01AC0160E028
:1003F20074E284E799E40E947C0220E030E040E865
:100402005FE30E9456020E94A00169B970BD8AB1E1
:0804120088618AB9579A089528
:10041A008130910569F01CF4892B39F008958230F6
:10042A00910549F0039751F008958FEF8ABB08951B
:10043A008FEF87BB08958FEF84BB08958FEF81BB41
:02044A00089513
:10044C008130910561F01CF4892B39F008958230CC
:10045C00910539F0039739F008956BBB089568BB8B
:0A046C00089565BB089562BB089572
:10047600092E0394000C11F4882352F0BB0F40F4AC
:10048600BF2B11F460FF04C06F5F7F4F8F4F9F4FEC
:020496000895C7
:1004980080E090E00E940D0280E895E20E94F10160
:0404A8007894FFCF76
:0E04AC005058BB27AA270E94C3000C943B02A5
:0E04BA0000240A94161617061806090608955F
:0E04C80000240A941216130614060506089561
:0E04D600E894BB2766277727CB0197F9089596
:0C04E40097F99F6780E870E060E00895E1
:0804F0005D9BFECF8CB908955D
:0804F8000E9454000C943B0229
:060500009FEF80EC08955E
:040506000C94000051
:04050A008CB1089513
:00000001FF
