:100000000C942A000C9475000C9475000C947500E7
:100010000C9475000C9475000C9475000C9475008C
:100020000C9475000C9475000C9475000C9475007C
:100030000C9475000C9475000C9475000C9475006C
:100040000C9475000C9475000C9475000C9475005C
:100050000C94750011241FBECFE5D8E0DEBFCDBFE4
:0C0060000E9436000C943400F894FFCF8E
:10006C000E9470000E9481000E947F000E94830009
:10007C0080E090E00E945500892B19F00E947700D7
:10008C0002C00E94790086E090E00E945500892B06
:0E009C0019F00E947B00ECCF0E947D00E9CF9E
:1000AA008230910579F08630910531F0892B81F4FF
:1000BA0086B3817090E0089580B386FB882780F923
:1000CA0090E0089580B382FB882780F990E0089534
:0600DA0080E090E00895B3
:0A00E00084B3846884BB8B9A0895F2
:0400EA000C94000072
:0400EE00AA9A08952D
:0400F200AA9808952B
:0400F600AF9A089520
:0400FA00AF9808951E
:0400FE00D29A0895F5
:04010200D39A0895EF
:04010600B898089508
:00000001FF
