:100000000C942A000C9489030C9489030C948903A2
:100010000C9489030C9489030C9489030C94890330
:100020000C9489030C9489030C9489030C94890320
:100030000C9489030C9489030C9489030C94890310
:100040000C9489030C9489030C9489030C94890300
:100050000C94890311241FBECFE5D8E0DEBFCDBFCD
:0C0060000E946E010C943400F894FFCF55
:10006C000FC00E946A0338F00E94710320F09523A0
:10007C0011F00C9478030C94860311240C946403F3
:10008C000E949D0270F3959FC1F3950F50E0551F90
:10009C00629FF001729FBB27F00DB11D639FAA27D1
:1000AC00F00DB11DAA1F649F6627B00DA11D661F20
:1000BC00829F2227B00DA11D621F739FB00DA11D41
:1000CC00621F839FA00D611D221F749F3327A00DFB
:1000DC00611D231F849F600D211D822F762F6A2F97
:1000EC0011249F5750409AF0F1F088234AF0EE0FFC
:1000FC00FF1FBB1F661F771F881F91505040A9F729
:10010C009E3F510580F00C9478030C9464035F3F80
:10011C00E4F3983ED4F3869577956795B795F79564
:10012C00E7959F5FC1F7FE2B880F911D96958795DC
:04013C0097F9089592
:1001400064E070E083E090E00E94AA0165E070E066
:1001500083E090E00E94AA0166E070E083E090E016
:100160000E94AA0167E070E083E090E00E94AA018B
:100170002FEF80E792E0215080409040E1F700C0EF
:10018000000060E070E081E090E00E94AA0162E07F
:1001900070E081E090E00E94AA0161E070E081E0FF
:1001A00090E00E94AA0161E070E081E090E00E948E
:1001B000F4000E947E0382E00E944B0288E20E94CB
:1001C0004B0286E00E944B0280E80E944B028CE0CA
:1001D0000E944B022FEF80E792E021508040904038
:0801E000E1F700C000000895E2
:1001E80081309105B1F01CF4892B39F008958230E3
:1001F8009105D9F0039729F108952BB381E090E098
:1002080002C0880F991F6A95E2F7809582238BBBFD
:10021800089528B381E090E002C0880F991F6A957D
:10022800E2F78095822388BB089525B381E090E0AA
:1002380002C0880F991F6A95E2F78095822385BBD3
:10024800089522B381E090E002C0880F991F6A9553
:0A025800E2F78095822382BB08952F
:10026200E89409C097FB3EF490958095709561954E
:100272007F4F8F4F9F4F9923A9F0F92F96E9BB2704
:100282009395F695879577956795B795F111F8CF80
:10029200FAF4BB0F11F460FF1BC06F5F7F4F8F4FEB
:1002A2009F4F16C0882311F096E911C0772321F0E1
:1002B2009EE8872F762F05C0662371F096E8862F79
:1002C20070E060E02AF09A95660F771F881FDAF7D0
:0A02D200880F9695879597F9089517
:1002DC000E94A00047E060E080E10E9409032FEF3C
:1002EC0080E792E0215080409040E1F700C0000090
:1002FC000E948B030E945503BC01990F880B990B2C
:10030C000E94330120E93EE34AEF5EE30E94820340
:10031C000E945C036B017C010E947E03C6010E945B
:10032C00BF0280E20E947402C6010E94BF0280E2FA
:10033C000E947402C6010E94BF0280E20E947402F5
:08034C00C6010E94BF02D4CFDC
:1003540081309105A9F01CF4892B39F0089582307D
:100364009105C9F0039711F108952AB381E090E053
:1003740002C0880F991F6A95E2F7822B8ABB089501
:1003840027B381E090E002C0880F991F6A95E2F7D5
:10039400822B87BB089524B381E090E002C0880FCC
:1003A400991F6A95E2F7822B84BB089521B381E0FB
:1003B40090E002C0880F991F6A95E2F7822B81BBF7
:0203C40008959A
:1003C60081309105A9F01CF4892B39F0089582300B
:1003D6009105C9F0039711F108952BB381E090E0E0
:1003E60002C0880F991F6A95E2F7822B8BBB08958E
:1003F60028B381E090E002C0880F991F6A95E2F762
:10040600822B88BB089525B381E090E002C0880F57
:10041600991F6A95E2F7822B85BB089522B381E086
:1004260090E002C0880F991F6A95E2F7822B82BB83
:02043600089527
:100438000E94A50288F09F5798F0B92F9927B751C5
:10044800B0F0E1F0660F771F881F991F1AF0BA9570
:10045800C9F714C0B13091F00E946303B1E0089568
:100468000C946303672F782F8827B85F39F0B93F5A
:10047800CCF3869577956795B395D9F73EF4909523
:0E0488008095709561957F4F8F4F9F4F08951F
:10049600CF93C82F62E070E081E090E00E94F40004
:1004A60082B38F709C2F907F892B82BB0E94F602AD
:1004B6008FE39FE10197F1F700C0000082B3282F78
:1004C6002F7030E1C39FC0011124822B82BB0E9492
:1004D600F6028FE39FE10197F1F700C00000CF918C
:0204E600089577
:1004E800CF93C82F62E070E081E090E00E94E301C2
:1004F80082B38F709C2F907F892B82BB0E94F6025B
:100508008FE39FE10197F1F700C0000082B3282F25
:100518002F7030E1C39FC0011124822B82BB0E943F
:10052800F6028FE39FE10197F1F700C00000CF9139
:02053800089524
:10053A0057FD9058440F551F59F05F3F71F047958A
:10054A00880F97FB991F61F09F3F79F0879508956F
:10055A00121613061406551FF2CF4695F1DF08C08E
:10056A00161617061806991FF1CF869571056105AB
:04057A000894089544
:10057E00CF93DF93CDB7DEB72B970FB6F894DEBFD0
:10058E000FBECDBF4AE0BE016F5F7F4F0E944A0390
:10059E00CE0101960E943B032B960FB6F894DEBF58
:0A05AE000FBECDBFDF91CF9108957D
:1005B800BB27FB015527AA27880F991FAA1FA41735
:1005C80010F0A41B83955051B9F7A05DAA3308F029
:1005D800A95DA193009779F7B111B1931192CB015D
:0405E8000C942B0341
:1005EC0060E070E081E090E00E94E3018FE19EE426
:1005FC000197F1F700C0000060E070E081E090E04E
:06060C000E94F4000895B5
:1006120097B18F71982B97B987B190E4699FB00118
:100622001124682B67B986B14770482B46B9379AAF
:02063200089529
:10063400092E0394000C11F4882352F0BB0F40F4EC
:10064400BF2B11F460FF04C06F5F7F4F8F4F9F4F2C
:02065400089507
:10065600DC01FC01672F71917723E1F7329704C023
:100666007C916D9370836291AE17BF07C8F30895AE
:10067600CF93DF93EC018881882331F021960E9485
:0E068600740289918111FBCFDF91CF9108950D
:10069400BB274A3031F4992322F4BDE29095819529
:0606A4009F4F0C94DD02E3
:0E06AA00349BFECF84B125B190E0922B0895D1
:0E06B8000E941C026894B1110C946403089512
:0E06C600E894BB2766277727CB0197F90895A4
:0E06D40000240A941616170618060906089543
:0E06E20000240A941216130614060506089545
:0C06F00097F99F6780E870E060E00895D3
:0806FC0081E00E944B02089509
:080704000E9436000C941A0358
:06070C009FEF80EC089550
:040712000C94000043
:04071600369A089572
:00000001FF
