:100000000C942A000C94D2000C94D2000C94D200D0
:100010000C94D2000C94D2000C94D2000C94D20018
:100020000C94D2000C94D2000C94D2000C94D20008
:100030000C94D2000C94D2000C94D2000C94D200F8
:100040000C94D2000C94D2000C94D2000C94D200E8
:100050000C94D20011241FBECFE5D8E0DEBFCDBF87
:0C0060000E949F000C943400F894FFCF25
:10006C0081309105A9F01CF4892B39F00895823068
:10007C009105C9F0039711F108952AB381E090E03E
:10008C0002C0880F991F6A95E2F7822B8ABB0895EC
:10009C0027B381E090E002C0880F991F6A95E2F7C0
:1000AC00822B87BB089524B381E090E002C0880FB7
:1000BC00991F6A95E2F7822B84BB089521B381E0E6
:1000CC0090E002C0880F991F6A95E2F7822B81BBE2
:0200DC00089585
:1000DE008130B9F028F0823051F08330E1F024C045
:1000EE008FB58C7F8FBD8EB5877E8EBD1DC08FB5B3
:1000FE008C7F8FBD8EB58F7E8EBD8EB588608EBD8A
:10010E0013C08FB581608FBD8EB580618EBD8FB5EA
:10011E0080688FBD09C08FB583608FBD8EB5886135
:10012E008EBD8FB580688FBD8EB5682B6EBD089560
:10013E0080E090E00E94B90065E070E083E090E01E
:10014E000E94360064E070E083E090E00E9436008A
:10015E0084EF91E09BBD8ABD65E083E00E946F0055
:04016E007894FFCFB3
:100172008130910569F01CF4892B39F008958230A1
:10018200910549F0039751F008958FEF8ABB0895C6
:100192008FEF87BB08958FEF84BB08958FEF81BBEC
:0201A2000895BE
:0401A4000C940000B7
:00000001FF
