:100000000C942A000C94E3030C94E3030C94E30394
:100010000C94E3030C94E3030C94E3030C94E303C8
:100020000C94E3030C94E3030C94E3030C94E303B8
:100030000C94E3030C946A020C94E3030C94E30322
:100040000C94E3030C94E3030C94E3030C94E30398
:100050000C94E30311241FBECFE5D8E0DEBFCDBF73
:10006000E4E5F0E040E017C0B591A5913591259108
:10007000059107FD0CC095918591EF01F92FE82FAF
:1000800005900D92A217B307D9F7FE0104C01D9287
:10009000A217B307E1F7E435F40731F70E94AA038A
:0800A0000C945200F894FFCF0C
:1000A80010C00E94C40358F00E94BD0340F029F418
:1000B8005F3F29F00C94D20351110C94CC030C949B
:1000C800E0030E94120368F39923B1F3552391F3D7
:1000D800951B550BBB27AA2762177307840738F0AF
:1000E8009F5F5F4F220F331F441FAA1FA9F335D00C
:1000F8000E2E3AF0E0E832D091505040E695001CC0
:10010800CAF72BD0FE2F29D0660F771F881FBB1F79
:10011800261737074807AB07B0E809F0BB0B802D57
:10012800BF01FF2793585F4F3AF09E3F510578F083
:100138000C94D2030C94CC035F3FE4F3983ED4F3C1
:10014800869577956795B795F7959F5FC9F7880F57
:10015800911D9695879597F90895E1E0660F771FA9
:10016800881FBB1F621773078407BA0720F0621B3A
:0E017800730B840BBA0BEE1F88F7E095089509
:1001860011C00E94BD0338F00E94C40320F039F468
:100196009F3F19F426F40C94E0030EF4E095E7FB78
:1001A6000C94D203E92F0E94120358F3BA17620780
:1001B60073078407950720F079F4A6F50C94CB0312
:1001C6000EF4E0950B2EBA2FA02D0B01B90190016C
:1001D6000C01CA01A0011124FF27591B99F0593FB0
:1001E60050F4503E68F11A16F040A22F232F342FF8
:1001F6004427585FF3CF469537952795A795F04046
:100206005395C9F77EF41F16BA0B620B730B840B5A
:10021600BAF09150A1F0FF0FBB1F661F771F881F12
:10022600C2F70EC0BA0F621F731F841F48F487956A
:1002360077956795B795F7959E3F08F0B0CF93955C
:0E024600880F08F09927EE0F97958795089579
:1002540064E070E083E090E00E94F80165E070E003
:1002640083E090E00E94F80166E070E083E090E0B3
:100274000E94F80167E070E083E090E00E94F801DA
:100284002FEF80E792E0215080409040E1F700C0DA
:10029400000060E070E081E090E00E94F80162E01C
:1002A40070E081E090E00E94F80161E070E081E09C
:1002B40090E00E94F80161E070E081E090E00E942B
:1002C4007E010E94D80382E00E94C80288E20E9454
:1002D400C80286E00E94C80280E80E94C8028CE03E
:1002E4000E94C8022FEF80E792E0215080409040A6
:0802F400E1F700C000000895CD
:1002FC0081309105B1F01CF4892B39F008958230CE
:10030C009105D9F0039729F108952BB381E090E082
:10031C0002C0880F991F6A95E2F7809582238BBBE8
:10032C00089528B381E090E002C0880F991F6A9568
:10033C00E2F78095822388BB089525B381E090E095
:10034C0002C0880F991F6A95E2F78095822385BBBE
:10035C00089522B381E090E002C0880F991F6A953E
:0A036C00E2F78095822382BB08951A
:10037600E89409C097FB3EF4909580957095619539
:100386007F4F8F4F9F4F9923A9F0F92F96E9BB27EF
:100396009395F695879577956795B795F111F8CF6B
:1003A600FAF4BB0F11F460FF1BC06F5F7F4F8F4FD6
:1003B6009F4F16C0882311F096E911C0772321F0CC
:1003C6009EE8872F762F05C0662371F096E8862F64
:1003D60070E060E02AF09A95660F771F881FDAF7BB
:0A03E600880F9695879597F9089502
:1003F00081309105A9F01CF4892B39F008958230E1
:100400009105C9F0039711F108952AB381E090E0B6
:1004100002C0880F991F6A95E2F7822B8ABB089564
:1004200027B381E090E002C0880F991F6A95E2F738
:10043000822B87BB089524B381E090E002C0880F2F
:10044000991F6A95E2F7822B84BB089521B381E05E
:1004500090E002C0880F991F6A95E2F7822B81BB5A
:020460000895FD
:1004620081309105A9F01CF4892B39F0089582306E
:100472009105C9F0039711F108952BB381E090E043
:1004820002C0880F991F6A95E2F7822B8BBB0895F1
:1004920028B381E090E002C0880F991F6A95E2F7C5
:1004A200822B88BB089525B381E090E002C0880FBB
:1004B200991F6A95E2F7822B85BB089522B381E0EA
:1004C20090E002C0880F991F6A95E2F7822B82BBE7
:0204D20008958B
:1004D4001F920F920FB60F9211242F933F934F93B5
:1004E4005F936F937F938F939F93AF93BF93CF93B8
:1004F400EF93FF930E94E503C82F0E94ED02C134DD
:1005040021F480E090E00E943403FF91EF91CF91B9
:10051400BF91AF919F918F917F916F915F914F9117
:0E0524003F912F910F900FBE0F901F901895D2
:100532000E941A0388F09F5798F0B92F9927B75154
:10054200B0F0E1F0660F771F881F991F1AF0BA9575
:10055200C9F714C0B13091F00E94CB03B1E0089505
:100562000C94CB03672F782F8827B85F39F0B93FF7
:10057200CCF3869577956795B395D9F73EF4909528
:0E0582008095709561957F4F8F4F9F4F089524
:10059000CF93C82F62E070E081E090E00E947E017E
:1005A00082B38F709C2F907F892B82BB0E94860321
:1005B00035E33A95F1F7000082B3282F2F7030E130
:1005C000C39FC0011124822B82BB0E94860385E356
:0A05D0008A95F1F70000CF9108951D
:1005DA00CF93C82F62E070E081E090E00E94310280
:1005EA0082B38F709C2F907F892B82BB0E948603D7
:1005FA0035E33A95F1F7000082B3282F2F7030E1E6
:10060A00C39FC0011124822B82BB0E94860385E30B
:0A061A008A95F1F70000CF910895D2
:1006240057FD9058440F551F59F05F3F71F047959F
:10063400880F97FB991F61F09F3F79F08795089584
:10064400121613061406551FF2CF4695F1DF08C0A3
:10065400161617061806991FF1CF869571056105C0
:040664000894089559
:100668008130910571F01CF4892B39F0089582309E
:10067800910559F0039769F008958BB380958BBB6A
:10068800089588B3809588BB089585B3809585BB08
:0A069800089582B3809582BB089597
:1006A200BC0180E090E00E94BB019B01AC0160E0D4
:1006B20074E284E799E40E94DC0320E030E040E841
:1006C2005FE30E94B6030E94990269B970BD8AB1C4
:0806D20088618AB9579A089566
:1006DA008130910569F01CF4892B39F00895823034
:1006EA00910549F0039751F008958FEF8ABB089559
:1006FA008FEF87BB08958FEF84BB08958FEF81BB7F
:02070A00089550
:10070C0060E070E081E090E00E9431028FE99FE0B0
:10071C000197F1F700C0000060E070E081E090E02C
:06072C000E947E01089509
:10073200092E0394000C11F4882352F0BB0F40F4ED
:10074200BF2B11F460FF04C06F5F7F4F8F4F9F4F2D
:02075200089508
:1007540080E090E00E946D0380E895E20E945103DE
:080764000E942A017894FFCFE6
:0E076C005058BB27AA270E94C3000C94990383
:0E077A0000240A94161617061806090608959C
:0E07880000240A94121613061406050608959E
:0E079600E894BB2766277727CB0197F90895D3
:0C07A40097F99F6780E870E060E008951E
:0807B00081E00E94C8020895D7
:0807B8000E9454000C94990307
:0607C0009FEF80EC08959C
:0407C6000C9400008F
:0407CA008CB1089551
:00000001FF
