:100000000C942A000C9468000C9468000C9468000E
:100010000C9468000C9468000C9468000C946800C0
:100020000C9468000C9468000C9468000C946800B0
:100030000C9468000C9468000C9468000C946800A0
:100040000C9468000C9468000C9468000C94680090
:100050000C94680011241FBECFE5D4E0DEBFCDBFF5
:10006000E4E5F0E040E017C0B591A5913591259108
:10007000059107FD0CC095918591EF01F92FE82FAF
:1000800005900D92A217B307D9F7FE0104C01D9287
:10009000A217B307E1F7E435F40731F70E945400E3
:0800A0000C945200F894FFCF0C
:1000A8000E9463000E9472000E9470000E94740007
:0E00B8000E946C000E946E000E946A00FFCF42
:0A00C60084B3846884BB8B9A08950C
:0400D0000C9400008C
:0400D400AA9A089547
:0400D800AF9A08953E
:0400DC00939A089556
:0400E000D29A089513
:0400E400D39A08950E
:0400E800B898089527
:00000001FF
