:100000000C942E000C9403010C9403010C94030136
:100010000C9403010C9403010C9403010C94030150
:100020000C9403010C9403010C9458000C940301EC
:100030000C9403010C9403010C9403010C94030130
:100040000C9403010C9403010C9403010C94030120
:100050000C9403010060006200020A0011241FBE1C
:10006000CFE5D8E0DEBFCDBFE4E5F0E040E017C06B
:10007000B591A59135912591059107FD0CC09591FC
:100080008591EF01F92FE82F05900D92A217B30784
:10009000D9F7FE0104C01D92A217B307E1F7EB35B3
:1000A000F40731F70E94F1000C945600F894FFCF4A
:1000B0001F920F920FB60F9211242F933F934F93DD
:1000C0005F936F937F938F939F93AF93BF93EF93C0
:1000D000FF93809160009091610001969093610080
:1000E0008093600080E090E00E94BB0080916000FF
:1000F0008CBF80916000909161008F3F910521F449
:100100001092610010926000FF91EF91BF91AF914A
:100110009F918F917F916F915F914F913F912F911F
:0A0120000F900FBE0F901F9018956E
:10012A00813051F028F0823071F0833099F015C097
:10013A0083B7877B83BF11C083B7877F83BF83B7AA
:10014A00806483BF0AC083B78F7B83BF83B788600D
:10015A0083BF03C083B7886483BF83B713BE83B7E3
:0C016A00682B63BF89B7826089BF0895CD
:100176008130910571F01CF4892B39F00895823095
:10018600910559F0039769F008958BB380958BBB61
:10019600089588B3809588BB089585B3809585BBFF
:0A01A600089582B3809582BB08958E
:1001B0008130910569F01CF4892B39F00895823063
:1001C000910549F0039751F008958FEF8ABB089588
:1001D0008FEF87BB08958FEF84BB08958FEF81BBAE
:0201E000089580
:1001E20080E090E00E94D80084E68CBF8FE39CE917
:1001F2000197F1F700C0000065E082E00E949500DF
:040202007894FFCF1E
:040206000C94000054
:02020A000100F1
:00000001FF
