:100000000C942A000C94AC000C94AC000C94AC0042
:100010000C94AC000C94AC000C94AC000C94AC00B0
:100020000C94AC000C94AC000C94AC000C94AC00A0
:100030000C94AC000C94AC000C94AC000C94AC0090
:100040000C94AC000C94AC000C94AC000C94AC0080
:100050000C94AC0011241FBECFE5D8E0DEBFCDBFAD
:0C0060000E948F000C943400F894FFCF35
:10006C0081309105A9F01CF4892B39F00895823068
:10007C009105C9F0039711F108952AB381E090E03E
:10008C0002C0880F991F6A95E2F7822B8ABB0895EC
:10009C0027B381E090E002C0880F991F6A95E2F7C0
:1000AC00822B87BB089524B381E090E002C0880FB7
:1000BC00991F6A95E2F7822B84BB089521B381E0E6
:1000CC0090E002C0880F991F6A95E2F7822B81BBE2
:0200DC00089585
:1000DE008823B1F065E070E081E090E00E94360088
:1000EE0067E070E081E090E00E94360064E070E02E
:1000FE0081E090E00E9436008DB183658DB9089540
:10010E0066E070E081E090E00E9436006E9A0895FD
:10011E0081E00E946F002FEF87EA91E62150804028
:10012E009040E1F700C0000081E40E94A8002FEF8C
:10013E0083EC99E0215080409040E1F700C0000030
:02014E00F3CFED
:080150008FB9779BFECF0895E3
:040158000C94000003
:00000001FF
