:100000000C942D000C94A4000C94A4000C94A40057
:100010000C94A4000C94A4000C94A4000C94A400D0
:100020000C94A4000C94A4000C94A4000C94A400C0
:100030000C94A4000C94A4000C94A4000C94A400B0
:100040000C94A4000C94A4000C94A4000C94A400A0
:100050000C94A40000600062800011241FBECFE554
:10006000D8E0DEBFCDBFE4E5F0E040E017C0B591D9
:10007000A59135912591059107FD0CC0959185912C
:10008000EF01F92FE82F05900D92A217B307D9F7CA
:10009000FE0104C01D92A217B307E1F7E935F4078A
:0E00A00031F70E9457000C945500F894FFCFE2
:1000AE000E949F000E94AC000E94AA000E94AE0017
:1000BE00C1E0D0E086E090E00E948400892BD1F36D
:1000CE008091600090916100892B39F00E94A80008
:1000DE00109261001092600006C00E94A600D0939C
:1000EE006100C09360002FEF89E698E121508040B7
:0A00FE009040E1F700C00000DDCFE4
:100108008230910579F08630910531F0892B81F4A0
:1001180086B3817090E0089580B386FB882780F9C4
:1001280090E0089580B382FB882780F990E00895D5
:0601380080E090E0089554
:0A013E0084B3846884BB8B9A089593
:040148000C94000013
:04014C00AF9A0895C9
:04015000AF980895C7
:04015400D29A08959E
:04015800D39A089599
:04015C00B8980895B2
:00000001FF
