:100000000C942D000C940B050C940B050C940B0513
:100010000C940B050C940B050C940B050C940B0520
:100020000C940B050C940B050C940B050C940B0510
:100030000C940B050C945E000C940B050C940B05B2
:100040000C940B050C940B050C940B050C940B05F0
:100050000C940B050060006C800011241FBECFE5DE
:10006000D8E0DEBFCDBFE4E5F0E040E017C0B591D9
:10007000A59135912591059107FD0CC0959185912C
:10008000EF01F92FE82F05900D92A217B307D9F7CA
:10009000FE0104C01D92A217B307E1F7E935F4078A
:0E00A00031F70E94BB040C945500F894FFCF7A
:0E00AE006F6E006F66660073616D706C6500AA
:1000BC001F920F920FB60F921124CF92DF92EF92F4
:1000CC000F931F932F933F934F935F936F937F9354
:1000DC008F939F93AF93BF93CF93DF93EF93FF9344
:1000EC00C0916A00D0916B000E940F05C05ADF4F7F
:1000FC00888380916A0090916B009C012F5F3F4F29
:10010C0030936B0020936A00FC01E05AFF4F808112
:10011C008D3009F044C080E690E06C0120E8E22EBE
:10012C0002E010E02EEA30E040E08E2DB6010E9495
:10013C000303892B29F46FEF80E090E00E944304C5
:10014C0003E010E021EB30E040E08E2DB6010E9480
:10015C000303892B29F460E080E090E00E944304C3
:10016C0006E010E025EB30E040E08E2DB6010E9459
:10017C000303892B81F40E940D050E94D304EC012A
:10018C000E94D3038DE00E940005CE010E94F00373
:10019C008DE00E94000510926B0010926A00FF9196
:1001AC00EF91DF91CF91BF91AF919F918F917F9103
:1001BC006F915F914F913F912F911F910F91EF9004
:0E01CC00DF90CF900F900FBE0F901F901895F0
:1001DA0010C00E94E80458F00E94E10440F029F49B
:1001EA005F3F29F00C94F60451110C94F0040C941E
:1001FA0008050E94B10368F39923B1F3552391F3DB
:10020A00951B550BBB27AA2762177307840738F07B
:10021A009F5F5F4F220F331F441FAA1FA9F335D0D8
:10022A000E2E3AF0E0E832D091505040E695001C8C
:10023A00CAF72BD0FE2F29D0660F771F881FBB1F46
:10024A00261737074807AB07B0E809F0BB0B802D24
:10025A00BF01FF2793585F4F3AF09E3F510578F050
:10026A000C94F6040C94F0045F3FE4F3983ED4F344
:10027A00869577956795B795F7959F5FC9F7880F24
:10028A00911D9695879597F90895E1E0660F771F76
:10029A00881FBB1F621773078407BA0720F0621B07
:0E02AA00730B840BBA0BEE1F88F7E0950895D6
:1002B80011C00E94E10438F00E94E80420F039F4EB
:1002C8009F3F19F426F40C9408050EF4E095E7FB1B
:1002D8000C94F604E92F0E94B10358F3BA17620789
:1002E80073078407950720F079F4A6F50C94EF04BA
:1002F8000EF4E0950B2EBA2FA02D0B01B901900139
:100308000C01CA01A0011124FF27591B99F0593F7C
:1003180050F4503E68F11A16F040A22F232F342FC4
:100328004427585FF3CF469537952795A795F04012
:100338005395C9F77EF41F16BA0B620B730B840B27
:10034800BAF09150A1F0FF0FBB1F661F771F881FDF
:10035800C2F70EC0BA0F621F731F841F48F4879537
:1003680077956795B795F7959E3F08F0B0CF939529
:0E037800880F08F09927EE0F97958795089546
:1003860064E070E083E090E00E94910265E070E036
:1003960083E090E00E94910266E070E083E090E0E6
:1003A6000E94910267E070E083E090E00E94910273
:1003B6002FEF80E792E0215080409040E1F700C0A7
:1003C600000060E070E081E090E00E94910262E04F
:1003D60070E081E090E00E94910261E070E081E0CF
:1003E60090E00E94910261E070E081E090E00E945E
:1003F60017020E94FC0482E00E94670388E20E94C2
:10040600670386E00E94670380E80E9467038CE02A
:100416000E9467032FEF80E792E0215080409040D2
:08042600E1F700C00000089599
:10042E0081309105B1F01CF4892B39F0089582309A
:10043E009105D9F0039729F108952BB381E090E04F
:10044E0002C0880F991F6A95E2F7809582238BBBB5
:10045E00089528B381E090E002C0880F991F6A9535
:10046E00E2F78095822388BB089525B381E090E062
:10047E0002C0880F991F6A95E2F78095822385BB8B
:10048E00089522B381E090E002C0880F991F6A950B
:0A049E00E2F78095822382BB0895E7
:1004A800E89409C097FB3EF4909580957095619506
:1004B8007F4F8F4F9F4F9923A9F0F92F96E9BB27BC
:1004C8009395F695879577956795B795F111F8CF38
:1004D800FAF4BB0F11F460FF1BC06F5F7F4F8F4FA3
:1004E8009F4F16C0882311F096E911C0772321F099
:1004F8009EE8872F762F05C0662371F096E8862F31
:1005080070E060E02AF09A95660F771F881FDAF787
:0A051800880F9695879597F90895CE
:1005220081309105A9F01CF4892B39F008958230AD
:100532009105C9F0039711F108952AB381E090E083
:1005420002C0880F991F6A95E2F7822B8ABB089531
:1005520027B381E090E002C0880F991F6A95E2F705
:10056200822B87BB089524B381E090E002C0880FFC
:10057200991F6A95E2F7822B84BB089521B381E02B
:1005820090E002C0880F991F6A95E2F7822B81BB27
:020592000895CA
:1005940081309105A9F01CF4892B39F0089582303B
:1005A4009105C9F0039711F108952BB381E090E010
:1005B40002C0880F991F6A95E2F7822B8BBB0895BE
:1005C40028B381E090E002C0880F991F6A95E2F792
:1005D400822B88BB089525B381E090E002C0880F88
:1005E400991F6A95E2F7822B85BB089522B381E0B7
:1005F40090E002C0880F991F6A95E2F7822B82BBB4
:02060400089557
:10060600CF92DF92EF920F931F936B01E82E0115A5
:10061600110519F101501109F6018491E7FC808159
:10062600882399F0F901949147FD9081992369F007
:100636000115110551F0891308C08FEFC81AD80AA1
:10064600E80A2F5F3F4F4F4FE5CF90E0F901249125
:1006560047FD2081821B910902C080E090E01F9136
:0A0666000F91EF90DF90CF90089500
:100670000E94B90388F09F5798F0B92F9927B75176
:10068000B0F0E1F0660F771F881F991F1AF0BA9536
:10069000C9F714C0B13091F00E94EF04B1E00895A1
:1006A0000C94EF04672F782F8827B85F39F0B93F93
:1006B000CCF3869577956795B395D9F73EF49095E9
:0E06C0008095709561957F4F8F4F9F4F0895E5
:1006CE00CF93C82F62E070E081E090E00E941702A5
:1006DE0082B38F709C2F907F892B82BB0E9458040F
:1006EE0035E33A95F1F7000082B3282F2F7030E1F1
:1006FE00C39FC0011124822B82BB0E94580485E344
:0A070E008A95F1F70000CF910895DD
:10071800CF93C82F62E070E081E090E00E94CA02A7
:1007280082B38F709C2F907F892B82BB0E945804C4
:1007380035E33A95F1F7000082B3282F2F7030E1A6
:10074800C39FC0011124822B82BB0E94580485E3F9
:0A0758008A95F1F70000CF91089593
:1007620057FD9058440F551F59F05F3F71F0479560
:10077200880F97FB991F61F09F3F79F08795089545
:10078200121613061406551FF2CF4695F1DF08C064
:10079200161617061806991FF1CF86957105610581
:0407A200089408951A
:1007A600CF93DF93CDB7DEB72B970FB6F894DEBFA6
:1007B6000FBECDBF4AE0BE016F5F7F4F0E94C804E7
:1007C600CE0101960E949D042B960FB6F894DEBFCB
:0A07D6000FBECDBFDF91CF91089553
:1007E000CF93DF93CDB7DEB72B970FB6F894DEBF6C
:1007F0000FBECDBF4AE0BE016F5F7F4F0E94C804AD
:10080000CE0101960E94AC042B960FB6F894DEBF81
:0A0810000FBECDBFDF91CF91089518
:10081A00BC0180E090E00E9454029B01AC0160E0C0
:10082A0074E284E799E40E94040520E030E040E89D
:10083A005FE30E94DA040E94380369B970BD8AB185
:08084A0088618AB9579A0895EC
:10085200BB27FB015527AA27880F991FAA1FA41798
:1008620010F0A41B83955051B9F7A05DAA3308F08C
:10087200A95DA193009779F7B111B1931192CB01C0
:040882000C948D0441
:100886008130910561F01CF4892B39F0089582308E
:10089600910539F0039739F008956BBB089568BB4D
:0A08A600089565BB089562BB089534
:1008B00060E070E081E090E00E94CA028FE99FE072
:1008C0000197F1F700C0000060E070E081E090E087
:0608D0000E9417020895CA
:1008D60097B18F71982B97B987B190E4699FB00152
:1008E6001124682B67B986B14770482B46B9379AE9
:0208F600089563
:1008F800092E0394000C11F4882352F0BB0F40F426
:10090800BF2B11F460FF04C06F5F7F4F8F4F9F4F65
:02091800089540
:10091A00DC01FC01672F71917723E1F7329704C05C
:10092A007C916D9370836291AE17BF07C8F30895E7
:10093A00CF93DF93EC018881882331F021960E94BE
:0E094A008C0389918111FBCFDF91CF9108952D
:10095800CF93DF93EC018881882331F021960E94A0
:0E096800000589918111FBCFDF91CF91089599
:1009760080E895E20E940D040E94C30147E060E012
:0A09860080E00E946B047894FFCF1C
:10099000BB274A3031F4992322F4BDE2909581952A
:0609A0009F4F0C942A0495
:0E09A600349BFECF84B125B190E0922B0895D2
:0E09B4005058BB27AA270E945C010C947C04BB
:0E09C20000240A941616170618060906089552
:0E09D00000240A941216130614060506089554
:0E09DE00E894BB2766277727CB0197F9089589
:0C09EC0097F99F6780E870E060E00895D4
:0809F80081E00E9467030895ED
:080A00005D9BFECF8CB9089547
:080A08000E94ED000C947C0437
:060A10009FEF80EC089549
:040A16000C9400003C
:040A1A00369A08956B
:040A1E008CB10895FA
:00000001FF
