:100000000C942E000C94FE040C94FE040C94FE043C
:100010000C94FE040C94FE040C94FE040C94FE0458
:100020000C94FE040C94FE040C94FE040C94FE0448
:100030000C94FE040C94EC010C94FE040C94FE044D
:100040000C94FE040C94FE040C94FE040C94FE0428
:100050000C94FE0400600077000A080011241FBE03
:10006000CFE5D8E0DEBFCDBFE4E5F0E040E017C06B
:10007000B591A59135912591059107FD0CC09591FC
:100080008591EF01F92FE82F05900D92A217B30784
:10009000D9F7FE0104C01D92A217B307E1F7EB35B3
:1000A000F40731F70E94A3020C945600F894FFCF96
:1000B00010C00E94D70458F00E94D00440F029F4E8
:1000C0005F3F29F00C94E50451110C94DF040C946B
:1000D000FB040E94C90368F39923B1F3552391F3FC
:1000E000951B550BBB27AA2762177307840738F0A7
:1000F0009F5F5F4F220F331F441FAA1FA9F335D004
:100100000E2E3AF0E0E832D091505040E695001CB7
:10011000CAF72BD0FE2F29D0660F771F881FBB1F71
:10012000261737074807AB07B0E809F0BB0B802D4F
:10013000BF01FF2793585F4F3AF09E3F510578F07B
:100140000C94E5040C94DF045F3FE4F3983ED4F391
:10015000869577956795B795F7959F5FC9F7880F4F
:10016000911D9695879597F90895E1E0660F771FA1
:10017000881FBB1F621773078407BA0720F0621B32
:0E018000730B840BBA0BEE1F88F7E095089501
:10018E000FC00E94D00438F00E94D70420F09523AF
:10019E0011F00C94E5040C94FB0411240C94DF0470
:1001AE000E94C90370F3959FC1F3950F50E0551F40
:1001BE00629FF001729FBB27F00DB11D639FAA27AE
:1001CE00F00DB11DAA1F649F6627B00DA11D661FFD
:1001DE00829F2227B00DA11D621F739FB00DA11D1E
:1001EE00621F839FA00D611D221F749F3327A00DD8
:1001FE00611D231F849F600D211D822F762F6A2F74
:10020E0011249F5750409AF0F1F088234AF0EE0FD8
:10021E00FF1FBB1F661F771F881F91505040A9F705
:10022E009E3F510580F00C94E5040C94DF045F3F73
:10023E00E4F3983ED4F3869577956795B795F79541
:10024E00E7959F5FC1F7FE2B880F911D96958795B9
:04025E0097F908956F
:1002620011C00E94D00438F00E94D70420F039F463
:100272009F3F19F426F40C94FB040EF4E095E7FB7F
:100282000C94E504E92F0E94C90358F3BA176207D8
:1002920073078407950720F079F4A6F50C94DE0421
:1002A2000EF4E0950B2EBA2FA02D0B01B90190018F
:1002B2000C01CA01A0011124FF27591B99F0593FD3
:1002C20050F4503E68F11A16F040A22F232F342F1B
:1002D2004427585FF3CF469537952795A795F04069
:1002E2005395C9F77EF41F16BA0B620B730B840B7E
:1002F200BAF09150A1F0FF0FBB1F661F771F881F36
:10030200C2F70EC0BA0F621F731F841F48F487958D
:1003120077956795B795F7959E3F08F0B0CF93957F
:0E032200880F08F09927EE0F9795879508959C
:1003300064E070E083E090E00E94DE0265E070E03F
:1003400083E090E00E94DE0266E070E083E090E0EF
:100350000E94DE0267E070E083E090E00E94DE022F
:100360002FEF80E792E0215080409040E1F700C0FD
:10037000000060E070E081E090E00E94DE0262E058
:1003800070E081E090E00E94DE0261E070E081E0D8
:1003900090E00E94DE0261E070E081E090E00E9467
:1003A00029020E94EB0482E00E947F0388E20E94FF
:1003B0007F0386E00E947F0380E80E947F038CE039
:1003C0000E947F032FEF80E792E021508040904011
:0803D000E1F700C000000895F0
:1003D8001F920F920FB60F9211242F933F934F93B2
:1003E8005F936F937F938F939F93AF93BF93EF9395
:1003F800FF930E940205813459F460E070E083E0C5
:1004080090E00E94EB038CE690E00E94A1040CC0EF
:10041800823451F460E070E083E090E00E94EB03E6
:1004280080E690E00E94A104FF91EF91BF91AF9107
:100438009F918F917F916F915F914F913F912F91F4
:0A0448000F900FBE0F901F90189543
:1004520081309105B1F01CF4892B39F00895823076
:100462009105D9F0039729F108952BB381E090E02B
:1004720002C0880F991F6A95E2F7809582238BBB91
:10048200089528B381E090E002C0880F991F6A9511
:10049200E2F78095822388BB089525B381E090E03E
:1004A20002C0880F991F6A95E2F78095822385BB67
:1004B200089522B381E090E002C0880F991F6A95E7
:0A04C200E2F78095822382BB0895C3
:1004CC00E89409C097FB3EF49095809570956195E2
:1004DC007F4F8F4F9F4F9923A9F0F92F96E9BB2798
:1004EC009395F695879577956795B795F111F8CF14
:1004FC00FAF4BB0F11F460FF1BC06F5F7F4F8F4F7F
:10050C009F4F16C0882311F096E911C0772321F074
:10051C009EE8872F762F05C0662371F096E8862F0C
:10052C0070E060E02AF09A95660F771F881FDAF763
:0A053C00880F9695879597F90895AA
:1005460080E895E20E9426040E94980147E060E058
:1005560080E00E946F0478940E9400050E94BB040C
:10056600BC01990F880B990B0E94680220E030E4C9
:100576004CE950E40E94F7040E94C9046B017C0117
:100586000E94EB04C6010E94090425ECC21629E06C
:10059600D20624F08BE60E94EF0403C08FE60E9489
:1005A600EF048FEF99E628E1815090402040E1F773
:0605B60000C00000D1CFDF
:1005BC0081309105A9F01CF4892B39F00895823013
:1005CC009105C9F0039711F108952AB381E090E0E9
:1005DC0002C0880F991F6A95E2F7822B8ABB089597
:1005EC0027B381E090E002C0880F991F6A95E2F76B
:1005FC00822B87BB089524B381E090E002C0880F62
:10060C00991F6A95E2F7822B84BB089521B381E090
:10061C0090E002C0880F991F6A95E2F7822B81BB8C
:02062C0008952F
:10062E0081309105A9F01CF4892B39F008958230A0
:10063E009105C9F0039711F108952BB381E090E075
:10064E0002C0880F991F6A95E2F7822B8BBB089523
:10065E0028B381E090E002C0880F991F6A95E2F7F7
:10066E00822B88BB089525B381E090E002C0880FED
:10067E00991F6A95E2F7822B85BB089522B381E01C
:10068E0090E002C0880F991F6A95E2F7822B82BB19
:02069E000895BD
:1006A0000E94D10388F09F5798F0B92F9927B7512E
:1006B000B0F0E1F0660F771F881F991F1AF0BA9506
:1006C000C9F714C0B13091F00E94DE04B1E0089582
:1006D0000C94DE04672F782F8827B85F39F0B93F74
:1006E000CCF3869577956795B395D9F73EF49095B9
:0E06F0008095709561957F4F8F4F9F4F0895B5
:1006FE00CF93C82F62E070E081E090E00E94290263
:10070E0082B38F709C2F907F892B82BB0E945C04DA
:10071E0035E33A95F1F7000082B3282F2F7030E1C0
:10072E00C39FC0011124822B82BB0E945C0485E30F
:0A073E008A95F1F70000CF910895AD
:10074800CF93C82F62E070E081E090E00E94170329
:1007580082B38F709C2F907F892B82BB0E945C0490
:1007680035E33A95F1F7000082B3282F2F7030E176
:10077800C39FC0011124822B82BB0E945C0485E3C5
:0A0788008A95F1F70000CF91089563
:1007920057FD9058440F551F59F05F3F71F0479530
:1007A200880F97FB991F61F09F3F79F08795089515
:1007B200121613061406551FF2CF4695F1DF08C034
:1007C200161617061806991FF1CF86957105610551
:0407D20008940895EA
:1007D600009729F4862F80680E947F030895813050
:1007E600910529F4862F806C0E947F03089582303C
:1007F600910529F4862F80690E947F030895039747
:0C08060021F4862F806D0E947F0308956E
:10081200CF93DF93CDB7DEB72B970FB6F894DEBF39
:100822000FBECDBF4AE0BE016F5F7F4F0E94B00492
:10083200CE0101960E94A1042B960FB6F894DEBF5A
:0A0842000FBECDBFDF91CF910895E6
:10084C00BC0180E090E00E9466029B01AC0160E07C
:10085C0074E284E799E40E94F30420E030E040E87D
:10086C005FE30E94C2040E94500369B970BD8AB153
:08087C0088618AB9579A0895BA
:10088400BB27FB015527AA27880F991FAA1FA41766
:1008940010F0A41B83955051B9F7A05DAA3308F05A
:1008A400A95DA193009779F7B111B1931192CB018E
:0408B4000C9491040B
:1008B80060E070E081E090E00E9417038FE99FE01C
:1008C8000197F1F700C0000060E070E081E090E07F
:0608D8000E9429020895B0
:1008DE0097B18F71982B97B987B190E4699FB0014A
:1008EE001124682B67B986B14770482B46B9379AE1
:0208FE0008955B
:10090000092E0394000C11F4882352F0BB0F40F41D
:10091000BF2B11F460FF04C06F5F7F4F8F4F9F4F5D
:02092000089538
:10092200DC01FC01672F71917723E1F7329704C054
:100932007C916D9370836291AE17BF07C8F30895DF
:10094200CF93DF93EC018881882331F021960E94B6
:0E095200A40389918111FBCFDF91CF9108950D
:10096000BB274A3031F4992322F4BDE2909581955A
:060970009F4F0C944304AC
:0E097600349BFECF84B125B190E0922B089502
:0E0984005058BB27AA270E9431010C94800412
:0E0992000E9450036894B1110C94DF04089584
:0E09A00000240A941616170618060906089574
:0E09AE0000240A941216130614060506089576
:0E09BC00E894BB2766277727CB0197F90895AB
:0C09CA0097F99F6780E870E060E00895F6
:0809D60081E00E947F030895F7
:0809DE005D9BFECF8CB908956A
:0809E6000E9458000C948004EB
:0809EE000E94C7000C94800474
:0609F6009FEF80EC089564
:0409FC000C94000057
:040A0000369A089585
:040A04008CB1089514
:0C0A08004C4544206973204F46460D0009
:0B0A14004C4544206973204F4E0D003C
:00000001FF
