:100000000C9436000C94F3020C94F3020C94F3025B
:100010000C94F3020C94F3020C94F3020C94F3028C
:100020000C94F3020C94F3020C94F3020C94600011
:100030000C94F3020C94F3020C94F3020C94F3026C
:100040000C94F3020C94F3020C94F3020C94F3025C
:100050000C94F3020060006B0005EA006B006D80F9
:10006000006D00710005F5007100728011241FBE43
:10007000CFE5D8E0DEBFCDBFE4E5F0E040E017C05B
:10008000B591A59135912591059107FD0CC09591EC
:100090008591EF01F92FE82F05900D92A217B30774
:1000A000D9F7FE0104C01D92A217B307E1F7EC36A1
:1000B000F40731F70E94D9020C945E00F894FFCF48
:1000C0001F920F920FB60F9211242F933F934F93CD
:1000D0005F936F937F938F939F93AF93BF93EF93B0
:1000E000FF93809171008F5F809371008D3309F0D1
:1000F00051C080916F009091700001968C339105F2
:1001000029F09093700080936F001EC010927000D1
:1001100010926F0080916D0090916E0001968C336B
:10012000910529F090936E0080936D000DC01092A0
:100130006E0010926D0080916B0090916C000196A2
:1001400090936C0080936B000E94EF0280916B0093
:1001500090916C000E9455028AE30E9430028091C7
:100160006D0090916E000E9455028AE30E94300259
:1001700080916F00909170000E94550260E070E0E5
:1001800081E090E00E94BE0280E690E00E94AF0213
:1001900010927100FF91EF91BF91AF919F918F915C
:1001A0007F916F915F914F913F912F910F900FBE73
:0601B0000F901F9018954E
:1001B60064E070E083E090E00E946C0165E070E02E
:1001C60083E090E00E946C0166E070E083E090E0DE
:1001D6000E946C0167E070E083E090E00E946C0191
:1001E6002FEF80E792E0215080409040E1F700C079
:1001F600000060E070E081E090E00E946C0162E047
:1002060070E081E090E00E946C0161E070E081E0C6
:1002160090E00E946C0161E070E081E090E00E9455
:100226002F010E94EF0282E00E940B0288E20E94E8
:100236000B0286E00E940B0280E80E940B028CE013
:100246000E940B022FEF80E792E021508040904001
:08025600E1F700C0000008956B
:10025E0081309105B1F01CF4892B39F0089582306C
:10026E009105D9F0039729F108952BB381E090E021
:10027E0002C0880F991F6A95E2F7809582238BBB87
:10028E00089528B381E090E002C0880F991F6A9507
:10029E00E2F78095822388BB089525B381E090E034
:1002AE0002C0880F991F6A95E2F78095822385BB5D
:1002BE00089522B381E090E002C0880F991F6A95DD
:0A02CE00E2F78095822382BB0895B9
:1002D80081309105A9F01CF4892B39F008958230FA
:1002E8009105C9F0039711F108952AB381E090E0D0
:1002F80002C0880F991F6A95E2F7822B8ABB08957E
:1003080027B381E090E002C0880F991F6A95E2F751
:10031800822B87BB089524B381E090E002C0880F48
:10032800991F6A95E2F7822B84BB089521B381E077
:1003380090E002C0880F991F6A95E2F7822B81BB73
:02034800089516
:10034A0081309105A9F01CF4892B39F00895823087
:10035A009105C9F0039711F108952BB381E090E05C
:10036A0002C0880F991F6A95E2F7822B8BBB08950A
:10037A0028B381E090E002C0880F991F6A95E2F7DE
:10038A00822B88BB089525B381E090E002C0880FD4
:10039A00991F6A95E2F7822B85BB089522B381E003
:1003AA0090E002C0880F991F6A95E2F7822B82BB00
:0203BA000895A4
:1003BC00CF93DF93D82FC62F63E070E081E090E0FD
:1003CC000E946C01D13051F028F0D23071F0D33052
:1003DC0099F015C083B7877B83BF11C083B7877F24
:1003EC0083BF83B7806483BF0AC083B78F7B83BF0F
:1003FC0083B7886083BF03C083B7886483BF83B728
:0A040C00C82BC3BFDF91CF91089504
:10041600CF93C82F62E070E081E090E00E942F0148
:1004260082B38F709C2F907F892B82BB0E948C0297
:1004360035E33A95F1F7000082B3282F2F7030E1AB
:10044600C39FC0011124822B82BB0E948C0285E3CC
:0A0456008A95F1F70000CF91089598
:10046000CF93C82F62E070E081E090E00E94A50188
:1004700082B38F709C2F907F892B82BB0E948C024D
:1004800035E33A95F1F7000082B3282F2F7030E161
:10049000C39FC0011124822B82BB0E948C0285E382
:0A04A0008A95F1F70000CF9108954E
:1004AA00CF93DF93CDB7DEB72B970FB6F894DEBFA5
:1004BA000FBECDBF4AE0BE016F5F7F4F0E94E402CC
:1004CA00CE0101960E94AF022B960FB6F894DEBFBA
:0A04DA000FBECDBFDF91CF91089552
:1004E400BB27FB015527AA27880F991FAA1FA4170A
:1004F40010F0A41B83955051B9F7A05DAA3308F0FE
:10050400A95DA193009779F7B111B1931192CB0131
:040514000C949F02A2
:1005180060E070E081E090E00E94A5018FE99FE033
:100528000197F1F700C0000060E070E081E090E022
:060538000E942F0108954E
:10053E00DC01FC01672F71917723E1F7329704C03C
:10054E007C916D9370836291AE17BF07C8F30895C7
:10055E00CF93DF93EC018881882331F021960E949E
:0E056E00300289918111FBCFDF91CF9108956A
:10057C00009729F4862F80680E940B02089501973A
:0C058C0021F4862F806C0E940B02089561
:10059800882319F0813029F0089589B7816089BFCF
:0A05A800089589B7826089BF0895A5
:1005B2000E94DB0065E080E00E94DE0180E00E9494
:0605C200CC027894FFCF8B
:1005C800BB274A3031F4992322F4BDE290958195F6
:0605D8009F4F0C9473021A
:0805DE0081E00E940B02089568
:0405E6000C94000071
:0B05EA0031382F31322F323032310017
:0205F5003B00C9
:0205F7003700CB
:00000001FF
