:100000000C9430000C9410010C9410010C9410010D
:100010000C9410010C9410010C9410010C9410011C
:100020000C9410010C9410010C94C6000C94100157
:100030000C9410010C9410010C9410010C941001FC
:100040000C9410010C9410010C9410010C941001EC
:100050000C941001006000628000620063000224C2
:1000600011241FBECFE5D8E0DEBFCDBFE4E5F0E050
:1000700040E017C0B591A59135912591059107FDF7
:100080000CC095918591EF01F92FE82F05900D9205
:10009000A217B307D9F7FE0104C01D92A217B30738
:1000A000E1F7E036F40731F70E9404010C945800A0
:0400B000F894FFCFF2
:1000B40081309105A9F01CF4892B39F00895823020
:1000C4009105C9F0039711F108952AB381E090E0F6
:1000D40002C0880F991F6A95E2F7822B8ABB0895A4
:1000E40027B381E090E002C0880F991F6A95E2F778
:1000F400822B87BB089524B381E090E002C0880F6F
:10010400991F6A95E2F7822B84BB089521B381E09D
:1001140090E002C0880F991F6A95E2F7822B81BB99
:0201240008953C
:10012600CF93DF93D82FC62F63E070E081E090E095
:100136000E945A00D13051F028F0D23071F0D330FD
:1001460099F015C083B7877B83BF11C083B7877FBC
:1001560083BF83B7806483BF0AC083B78F7B83BFA7
:1001660083B7886083BF03C083B7886483BF83B7C0
:10017600806183BF83B7C82BC3BF89B7826089BF3D
:06018600DF91CF91089506
:10018C001F920F920FB60F9211248F939F93809111
:10019C0060009091610001968C39910529F0909343
:1001AC006100809360000AC01092610010926000A0
:1001BC00809162008E5C809362008CBF9F918F91C6
:0A01CC000F900FBE0F901F901895C2
:1001D6008130910569F01CF4892B39F0089582303D
:1001E600910549F0039751F008958FEF8ABB089562
:1001F6008FEF87BB08958FEF84BB08958FEF81BB88
:02020600089559
:1002080080E090E00E94EB0084E68CBF65E082E02D
:080218000E9493007894FFCFCF
:040220000C9400003A
:0102240032A7
:00000001FF
