:100000000C942E000C9436040C9436040C94360494
:100010000C9436040C9436040C9436040C94360478
:100020000C9436040C9436040C9436040C94360468
:100030000C9436040C9436040C9436040C94360458
:100040000C9436040C9436040C9436040C94360448
:100050000C9436040060006D0008700011241FBE6F
:10006000CFE5D8E0DEBFCDBFE4E5F0E040E017C06B
:10007000B591A59135912591059107FD0CC09591FC
:100080008591EF01F92FE82F05900D92A217B30784
:10009000D9F7FE0104C01D92A217B307E1F7EB35B3
:1000A000F40731F70E94C7000C945600F894FFCF74
:1000B00010C00E94170458F00E94100440F029F468
:1000C0005F3F29F00C94250451110C941F040C94EB
:1000D00033040E94550368F39923B1F3552391F338
:1000E000951B550BBB27AA2762177307840738F0A7
:1000F0009F5F5F4F220F331F441FAA1FA9F335D004
:100100000E2E3AF0E0E832D091505040E695001CB7
:10011000CAF72BD0FE2F29D0660F771F881FBB1F71
:10012000261737074807AB07B0E809F0BB0B802D4F
:10013000BF01FF2793585F4F3AF09E3F510578F07B
:100140000C9425040C941F045F3FE4F3983ED4F311
:10015000869577956795B795F7959F5FC9F7880F4F
:10016000911D9695879597F90895E1E0660F771FA1
:10017000881FBB1F621773078407BA0720F0621B32
:0E018000730B840BBA0BEE1F88F7E095089501
:10018E0060E070E080E090E00E947B0161E070E052
:10019E0080E090E00E947B010E94270180916C001C
:1001AE000E94AE0365E081E00E94A4027894C4E64A
:1001BE00D0E0C89B21C080916C00865F853608F028
:1001CE008C2F80936C000E94AE030E942B0480E65D
:1001DE0090E00E94F60380916C0090E00E947703FD
:1001EE0085E20E942C032FEF89E698E12150804092
:1001FE009040E1F700C00000C99BDBCF80916C00FE
:10020E008A50853608F08D2F80936C000E94AE03C5
:10021E000E942B0480E690E00E94F60380916C0011
:10022E0090E00E94770385E20E942C032FEF89E66F
:10023E0098E1215080409040E1F700C00000B9CF16
:10024E0064E070E083E090E00E94320265E070E0CE
:10025E0083E090E00E94320266E070E083E090E07E
:10026E000E94320267E070E083E090E00E9432026A
:10027E002FEF80E792E0215080409040E1F700C0E0
:10028E00000060E070E081E090E00E94320262E0E7
:10029E0070E081E090E00E94320261E070E081E067
:1002AE0090E00E94320261E070E081E090E00E94F6
:1002BE00B8010E942B0482E00E94030388E20E9490
:1002CE00030386E00E94030380E80E9403038CE090
:1002DE000E9403032FEF80E792E021508040904070
:0802EE00E1F700C000000895D3
:1002F60081309105B1F01CF4892B39F008958230D4
:100306009105D9F0039729F108952AB381E090E089
:1003160002C0880F991F6A95E2F7809582238ABBEF
:10032600089527B381E090E002C0880F991F6A956F
:10033600E2F78095822387BB089524B381E090E09D
:1003460002C0880F991F6A95E2F78095822384BBC5
:10035600089521B381E090E002C0880F991F6A9545
:0A036600E2F78095822381BB089521
:1003700081309105B1F01CF4892B39F00895823059
:100380009105D9F0039729F108952BB381E090E00E
:1003900002C0880F991F6A95E2F7809582238BBB74
:1003A000089528B381E090E002C0880F991F6A95F4
:1003B000E2F78095822388BB089525B381E090E021
:1003C00002C0880F991F6A95E2F78095822385BB4A
:1003D000089522B381E090E002C0880F991F6A95CA
:0A03E000E2F78095822382BB0895A6
:1003EA00E89409C097FB3EF49095809570956195C5
:1003FA007F4F8F4F9F4F9923A9F0F92F96E9BB277B
:10040A009395F695879577956795B795F111F8CFF6
:10041A00FAF4BB0F11F460FF1BC06F5F7F4F8F4F61
:10042A009F4F16C0882311F096E911C0772321F057
:10043A009EE8872F762F05C0662371F096E8862FEF
:10044A0070E060E02AF09A95660F771F881FDAF746
:0A045A00880F9695879597F908958D
:1004640081309105A9F01CF4892B39F0089582306C
:100474009105C9F0039711F108952AB381E090E042
:1004840002C0880F991F6A95E2F7822B8ABB0895F0
:1004940027B381E090E002C0880F991F6A95E2F7C4
:1004A400822B87BB089524B381E090E002C0880FBB
:1004B400991F6A95E2F7822B84BB089521B381E0EA
:1004C40090E002C0880F991F6A95E2F7822B81BBE6
:0204D400089589
:1004D60081309105A9F01CF4892B39F008958230FA
:1004E6009105C9F0039711F108952BB381E090E0CF
:1004F60002C0880F991F6A95E2F7822B8BBB08957D
:1005060028B381E090E002C0880F991F6A95E2F750
:10051600822B88BB089525B381E090E002C0880F46
:10052600991F6A95E2F7822B85BB089522B381E075
:1005360090E002C0880F991F6A95E2F7822B82BB72
:02054600089516
:10054800CF93DF93D82FC62F63E070E081E090E06F
:100558000E943202D13051F028F0D23071F0D330FD
:1005680099F015C083B7877B83BF11C083B7877F96
:1005780083BF83B7806483BF0AC083B78F7B83BF81
:1005880083B7886083BF03C083B7886483BF83B79A
:10059800806283BF83B7C82BC3BFDF91CF91089513
:1005A8000E945D0388F09F5798F0B92F9927B7519B
:1005B800B0F0E1F0660F771F881F991F1AF0BA95FF
:1005C800C9F714C0B13091F00E941E04B1E008953B
:1005D8000C941E04672F782F8827B85F39F0B93F2D
:1005E800CCF3869577956795B395D9F73EF49095B2
:0E05F8008095709561957F4F8F4F9F4F0895AE
:10060600CF93C82F62E070E081E090E00E94B801CD
:1006160082B38F709C2F907F892B82BB0E94C2036E
:100626008FE39FE10197F1F700C0000082B3282F06
:100636002F7030E1C39FC0011124822B82BB0E9420
:10064600C2038FE39FE10197F1F700C00000CF914D
:02065600089505
:10065800CF93C82F62E070E081E090E00E946B02C7
:1006680082B38F709C2F907F892B82BB0E94C2031C
:100678008FE39FE10197F1F700C0000082B3282FB4
:100688002F7030E1C39FC0011124822B82BB0E94CE
:10069800C2038FE39FE10197F1F700C00000CF91FB
:0206A8000895B3
:1006AA0057FD9058440F551F59F05F3F71F0479519
:1006BA00880F97FB991F61F09F3F79F087950895FE
:1006CA00121613061406551FF2CF4695F1DF08C01D
:1006DA00161617061806991FF1CF8695710561053A
:0406EA0008940895D3
:1006EE00CF93DF93CDB7DEB72B970FB6F894DEBF5F
:1006FE000FBECDBF4AE0BE016F5F7F4F0E94050463
:10070E00CE0101960E94F6032B960FB6F894DEBF2B
:0A071E000FBECDBFDF91CF9108950B
:10072800BB27FB015527AA27880F991FAA1FA417C3
:1007380010F0A41B83955051B9F7A05DAA3308F0B7
:10074800A95DA193009779F7B111B1931192CB01EB
:040758000C94E60314
:10075C002FEF829FC0011124BC01990F880B990BBC
:10076C000E94F70120E030E048EC52E40E942F0494
:08077C000E94D4026CBF089535
:1007840060E070E081E090E00E946B028FE19EE403
:100794000197F1F700C0000060E070E081E090E0B4
:0607A4000E94B801089557
:1007AA00092E0394000C11F4882352F0BB0F40F475
:1007BA00BF2B11F460FF04C06F5F7F4F8F4F9F4FB5
:0207CA00089590
:1007CC00DC01FC01672F71917723E1F7329704C0AC
:1007DC007C916D9370836291AE17BF07C8F3089537
:1007EC00CF93DF93EC018881882331F021960E940E
:0E07FC002C0389918111FBCFDF91CF910895DD
:10080A00BB274A3031F4992322F4BDE290958195B1
:06081A009F4F0C949503B2
:0E08200000240A9416161706180609060895F5
:0E082E0000240A9412161306140605060895F7
:0E083C00E894BB2766277727CB0197F908952C
:0C084A0097F99F6780E870E060E0089577
:0808560081E00E9403030895F4
:08085E000E9458000C94D50320
:060866009FEF80EC0895F5
:04086C000C940000E8
:0C087000447574794379636C653D200089
:01087C003249
:00000001FF
