:100000000C942D000C94AA020C94AA020C94AA023F
:100010000C94AA020C94AA020C94AA020C94AA02B0
:100020000C94AA020C94AA020C94AA020C945A01F1
:100030000C94AA020C94AA020C94AA020C94AA0290
:100040000C94AA020C94AA020C94AA020C94AA0280
:100050000C94AA0200600062800011241FBECFE54C
:10006000D8E0DEBFCDBFE4E5F0E040E017C0B591D9
:10007000A59135912591059107FD0CC0959185912C
:10008000EF01F92FE82F05900D92A217B307D9F7CA
:10009000FE0104C01D92A217B307E1F7E935F4078A
:0E00A00031F70E943C020C945500F894FFCFFB
:1000AE0064E070E083E090E00E94E80065E070E0BC
:1000BE0083E090E00E94E80066E070E083E090E06C
:1000CE000E94E80067E070E083E090E00E94E800A4
:1000DE002FEF80E792E0215080409040E1F700C082
:1000EE00000060E070E081E090E00E94E80062E0D5
:1000FE0070E081E090E00E94E80061E070E081E055
:10010E0090E00E94E80061E070E081E090E00E94E3
:10011E00AB000E94A60282E00E948D0188E20E943E
:10012E008D0186E00E948D0180E80E948D018CE099
:10013E000E948D012FEF80E792E021508040904089
:08014E00E1F700C00000089574
:1001560081309105B1F01CF4892B39F00895823075
:100166009105D9F0039729F108952BB381E090E02A
:1001760002C0880F991F6A95E2F7809582238BBB90
:10018600089528B381E090E002C0880F991F6A9510
:10019600E2F78095822388BB089525B381E090E03D
:1001A60002C0880F991F6A95E2F78095822385BB66
:1001B600089522B381E090E002C0880F991F6A95E6
:0A01C600E2F78095822382BB0895C2
:1001D00081309105A9F01CF4892B39F00895823003
:1001E0009105C9F0039711F108952AB381E090E0D9
:1001F00002C0880F991F6A95E2F7822B8ABB089587
:1002000027B381E090E002C0880F991F6A95E2F75A
:10021000822B87BB089524B381E090E002C0880F51
:10022000991F6A95E2F7822B84BB089521B381E080
:1002300090E002C0880F991F6A95E2F7822B81BB7C
:0202400008951F
:1002420081309105A9F01CF4892B39F00895823090
:100252009105C9F0039711F108952BB381E090E065
:1002620002C0880F991F6A95E2F7822B8BBB089513
:1002720028B381E090E002C0880F991F6A95E2F7E7
:10028200822B88BB089525B381E090E002C0880FDD
:10029200991F6A95E2F7822B85BB089522B381E00C
:1002A20090E002C0880F991F6A95E2F7822B82BB09
:0202B2000895AD
:1002B4001F920F920FB60F9211242F933F934F93D7
:1002C4005F936F937F938F939F93AF93BF93EF93BA
:1002D400FF9380916000909161000196909361007A
:1002E40080936000CD9731F40E94AC0210926100BB
:1002F40010926000FF91EF91BF91AF919F918F9108
:100304007F916F915F914F913F912F910F900FBE0D
:060314000F901F901895E8
:10031A00CF93C82F62E070E081E090E00E94AB00CA
:10032A0082B38F709C2F907F892B82BB0E945102CF
:10033A008FE39FE10197F1F700C0000082B3282FF5
:10034A002F7030E1C39FC0011124822B82BB0E940F
:10035A0051028FE39FE10197F1F700C00000CF91AE
:02036A000895F4
:10036C00CF93C82F62E070E081E090E00E94210101
:10037C0082B38F709C2F907F892B82BB0E9451027D
:10038C008FE39FE10197F1F700C0000082B3282FA3
:10039C002F7030E1C39FC0011124822B82BB0E94BD
:1003AC0051028FE39FE10197F1F700C00000CF915C
:0203BC000895A2
:1003BE00813051F028F0823071F0833099F015C001
:1003CE0083B7877B83BF11C083B7877F83BF83B714
:1003DE00806483BF0AC083B78F7B83BF83B7886077
:1003EE0083BF03C083B7886483BF83B713BE83B74D
:0C03FE00682B63BF89B7816089BF089538
:10040A00CF93DF93CDB7DEB72B970FB6F894DEBF45
:10041A000FBECDBF4AE0BE016F5F7F4F0E949402BC
:10042A00CE0101960E9485022B960FB6F894DEBF84
:0A043A000FBECDBFDF91CF910895F2
:10044400BB27FB015527AA27880F991FAA1FA417AA
:1004540010F0A41B83955051B9F7A05DAA3308F09E
:10046400A95DA193009779F7B111B1931192CB01D2
:040474000C9475026D
:100478000E94570047E060E080E00E94640265E067
:1004880080E00E94DF0178940E949F02EC010E94A4
:0A049800A602CE010E940502F7CF74
:1004A20060E070E081E090E00E9421018FE19EE433
:1004B2000197F1F700C0000060E070E081E090E099
:0604C2000E94AB0008954A
:1004C80097B18F71982B97B987B190E4699FB00164
:1004D8001124682B67B986B14770482B46B9379AFB
:0204E800089575
:1004EA00DC01FC01672F71917723E1F7329704C091
:1004FA007C916D9370836291AE17BF07C8F308951C
:10050A00CF93DF93EC018881882331F021960E94F2
:0E051A00B60189918111FBCFDF91CF91089539
:10052800BB274A3031F4992322F4BDE29095819596
:060538009F4F0C9423020A
:0E053E00349BFECF84B125B190E0922B08953E
:08054C0081E00E948D01089579
:040554000C94000003
:04055800369A089532
:00000001FF
