:100000000C942A000C94CC010C94CC010C94CC01DF
:100010000C94CC010C94CC010C94CC010C94CC012C
:100020000C94CC010C94CC010C94CC010C94CC011C
:100030000C94CC010C94CC010C94CC010C94CC010C
:100040000C94CC010C94CC010C94CC010C94CC01FC
:100050000C94CC0111241FBECFE5D8E0DEBFCDBF8C
:0C0060000E94B6010C943400F894FFCF0D
:10006C0064E070E083E090E00E94C70065E070E01F
:10007C0083E090E00E94C70066E070E083E090E0CF
:10008C000E94C70067E070E083E090E00E94C70028
:10009C002FEF80E792E0215080409040E1F700C0C4
:1000AC00000060E070E081E090E00E94C70062E038
:1000BC0070E081E090E00E94C70061E070E081E0B8
:1000CC0090E00E94C70061E070E081E090E00E9447
:1000DC008A000E94C80182E00E94390188E20E94D5
:1000EC00390186E00E94390180E80E9439018CE0D8
:1000FC000E9439012FEF80E792E021508040904020
:08010C00E1F700C000000895B6
:1001140081309105B1F01CF4892B39F008958230B7
:100124009105D9F0039729F108952BB381E090E06C
:1001340002C0880F991F6A95E2F7809582238BBBD2
:10014400089528B381E090E002C0880F991F6A9552
:10015400E2F78095822388BB089525B381E090E07F
:1001640002C0880F991F6A95E2F78095822385BBA8
:10017400089522B381E090E002C0880F991F6A9528
:0A018400E2F78095822382BB089504
:10018E0081309105A9F01CF4892B39F00895823045
:10019E009105C9F0039711F108952AB381E090E01B
:1001AE0002C0880F991F6A95E2F7822B8ABB0895C9
:1001BE0027B381E090E002C0880F991F6A95E2F79D
:1001CE00822B87BB089524B381E090E002C0880F94
:1001DE00991F6A95E2F7822B84BB089521B381E0C3
:1001EE0090E002C0880F991F6A95E2F7822B81BBBF
:0201FE00089562
:1002000081309105A9F01CF4892B39F008958230D2
:100210009105C9F0039711F108952BB381E090E0A7
:1002200002C0880F991F6A95E2F7822B8BBB089555
:1002300028B381E090E002C0880F991F6A95E2F729
:10024000822B88BB089525B381E090E002C0880F1F
:10025000991F6A95E2F7822B85BB089522B381E04E
:1002600090E002C0880F991F6A95E2F7822B82BB4B
:020270000895EF
:10027200CF93C82F62E070E081E090E00E948A0094
:1002820082B38F709C2F907F892B82BB0E94A30127
:1002920035E33A95F1F7000082B3282F2F7030E151
:1002A200C39FC0011124822B82BB0E94A30185E35C
:0A02B2008A95F1F70000CF9108953E
:1002BC00CF93C82F62E070E081E090E00E940001D3
:1002CC0082B38F709C2F907F892B82BB0E94A301DD
:1002DC0035E33A95F1F7000082B3282F2F7030E107
:1002EC00C39FC0011124822B82BB0E94A30185E312
:0A02FC008A95F1F70000CF910895F4
:100306008823B1F065E070E081E090E00E94C700CC
:1003160067E070E081E090E00E94C70064E070E072
:1003260081E090E00E94C7008DB183658DB9089584
:1003360066E070E081E090E00E94C7006E9A089542
:1003460060E070E081E090E00E9400018FE99FE0AC
:100356000197F1F700C0000060E070E081E090E0F6
:060366000E948A000895C8
:10036C000E94360080E00E9483010E94C401C82FC5
:0C037C000E94C8018C2F0E945E01F7CF88
:08038800779BFECF8FB10895B1
:0803900081E00E94390108958B
:040398000C940000C1
:00000001FF
