:100000000C942A000C949E000C949E000C949E006C
:100010000C949E000C949E000C949E000C949E00E8
:100020000C949E000C949E000C949E000C949E00D8
:100030000C949E000C949E000C949E000C949E00C8
:100040000C949E000C949E000C949E000C949E00B8
:100050000C949E0011241FBECFE5D8E0DEBFCDBFBB
:0C0060000E9482000C943400F894FFCF42
:10006C008130910569F01CF4892B39F008958230A8
:10007C00910549F0039751F008958FEF8ABB0895CD
:10008C008FEF87BB08958FEF84BB08958FEF81BBF3
:02009C000895C5
:10009E008130910561F01CF4892B39F0089582307E
:1000AE00910539F0039739F008956BBB089568BB3D
:0A00BE00089565BB089562BB089524
:1000C80086B7846C86BF06B607FEFDCF91B1987FD0
:1000D80021E030E0903611F020E030E0C9010895C9
:1000E80086B7846C86BF06B607FEFDCF81B1887FD0
:0C00F800803811F483B1089580E0089571
:1001040083E090E00E9436000E9499000E949000D3
:0C011400682F83E090E00E944F00FFCFB6
:100120000E946400892B19F00E947400089580E0F9
:02013000089530
:0A01320082E082B98FEF80B90895D2
:04013C000C9400001F
:00000001FF
