:100000000C942A000C9466000C9466000C94660014
:100010000C9466000C9466000C9466000C946600C8
:100020000C9466000C9466000C9466000C946600B8
:100030000C9466000C9466000C9466000C946600A8
:100040000C9466000C9466000C9466000C94660098
:100050000C94660011241FBECFE5D8E0DEBFCDBFF3
:0C0060000E945B000C943400F894FFCF69
:10006C0086B7846C86BF06B607FEFDCF81B1887F4C
:10007C00803629F0883A31F080E090E0089581E0F4
:0A008C0090E0089582E090E00895EE
:10009600CF93C82F0E943600029741F4C3B986B7A2
:1000A600846886BF06B607FEFDCF81B1CF9108955D
:0C00B6000E94610081E40E944B00FCCF1E
:0A00C20082E082B98FEF80B9089543
:0400CC000C94000090
:00000001FF
